:100000000C9463000C948B000C948B000C948B006C
:100010000C948B000C948B000C948B000C948B0034
:100020000C948B000C948B000C948B000C940E039E
:100030000C948B000C948B000C948B000C948B0014
:100040000C9434050C948B000C948B000C948B0056
:100050000C948B000C948B000C948B000C948B00F4
:100060000C948B000C948B000000000024002700EF
:100070002A0000000000250028002B0000000000DE
:1000800023002600290004040404040404040202DA
:100090000202020203030303030301020408102007
:1000A0004080010204081020010204081020000012
:1000B0000007000201000003040600000000000029
:1000C00000000204FB0311241FBECFEFD8E0DEBF07
:1000D000CDBF11E0A0E0B1E0E0E3FFE002C0059099
:1000E0000D92A030B107D9F711E0A0E0B1E001C056
:1000F0001D92A335B107E1F710E0C4ECD0E004C0D5
:100100002297FE010E948707C23CD107C9F70E94CF
:10011000DC040C948B070C9400000895FC0184818E
:100120000E94A30620E030E0019711F421E030E0C6
:10013000C9010895CF93DF93EC018A819B810197D8
:1001400049F4CE010E948E00892B21F41982188275
:100150001B821A8288819981892B51F4CE010E94D9
:100160008E008130910521F4998388831B821A8245
:10017000DF91CF910895CF93DF93EC010E949A0015
:10018000288139812130310549F48A819B81892B6D
:1001900029F43B832A8321E030E002C020E030E0F4
:1001A000C901DF91CF9108950F931F938C01862F82
:1001B000F8016483758360E00E941006F8011182E3
:1001C0001082138212821F910F910895CF93DF93B3
:1001D000EC017D836C835F834E8388819981892BB9
:1001E00021F0CE0108960E9420028A819B81892BF2
:1001F00031F06E817F81CE010B960E942002DF914B
:10020000CF9108950F931F938C016AE570E04AE542
:1002100050E00E94E60068EC70E080E090E00E9410
:100220007C05C8016DE270E04AE550E00E94E600FE
:1002300064E670E080E090E00E947C05C8016AE01E
:1002400070E04AEA50E00E94E6006AEF70E080E069
:1002500090E00E947C05C8016DE270E04AE550E044
:100260000E94E60064E670E080E090E00E947C0579
:10027000C8016AE570E04AE550E00E94E6001F917F
:100280000F910895CF93DF93EC0188819981892B99
:1002900021F0CE0108960E94B4018A819B81892BAE
:1002A00021F0CE010B960E94B401DF91CF91089509
:1002B000AF92BF92CF92DF92EF92FF920F931F9374
:1002C000CF93DF93EC017B018A0198E0C92ED12CFA
:1002D000CC0EDD1EC6010E949A018BE0A82EB12C27
:1002E000AC0EBD1EC5010E949A01F982E8821B83F3
:1002F0000A83E114F10421F0C601B7010E9407034B
:100300006A817B816115710519F0C5010E9407039F
:10031000CE016AE570E04AE550E00E94E600DF9118
:10032000CF911F910F91FF90EF90DF90CF90BF90F2
:10033000AF900895FC01809100018C3090F480838F
:100340008F5F80930001815090E0FC01EE0FFF1F52
:10035000E80FF91FEF5FFE4F88EB9BE092838183EC
:1003600008958FEF80830895DC018C9190E0FC016B
:10037000EE0FFF1FE80FF91FEF5FFE4F80818F7BAD
:1003800080838C916CE00E94150790E0AC01440FD3
:10039000551F480F591F440F551F440F551F20E08C
:1003A00030E0C901840F951FFC01EE0FFF1FE80F1D
:1003B000F91FEF5FFE4F808186FD05C02F5F3F4F25
:1003C0002C30310571F70895FC0120812C30B8F5EF
:1003D0008181992787FD909548E850E0481B590B8B
:1003E000440F551F440F551F6417750784F0828111
:1003F000992787FD909548E552E0481B590B440F1B
:10040000551F440F551F641775070CF4AB0142507C
:100410005040CA01AA2797FDA095BA2F880F991FAF
:10042000AA1FBB1F4FB7F89430E0F901EE0FFF1F72
:10043000E20FF31FEF5FFE4F928381834FBF08955A
:10044000AF92BF92CF92DF92EF92FF920F931F93E2
:10045000CF93DF93EC019B0182E0603278070CF0D0
:1004600048C077FF03C020E030E005C0653B710560
:1004700014F024EB30E000D000D0B901882777FDDC
:100480008095982F2981332727FD3095E8E8AE2EF7
:10049000B12CA21AB30AAA0CBB1CAA0CBB1CCC24FC
:1004A000B7FCC094DC2CEA81FF27E7FDF09528E536
:1004B00032E02E1B3F0B220F331F220F331F442726
:1004C00037FD4095542FEDB7FEB721833283438328
:1004D000548320E030E040E050E004EBE02EF12CCB
:1004E000012D112D0E94EB049B010F900F900F9096
:1004F0000F90CE01B9010E94E401DF91CF911F91CD
:100500000F91FF90EF90DF90CF90BF90AF90089544
:10051000CF92DF92EF92FF921F93CF93DF93EC0184
:10052000162F7A01690188818C3008F064C0862F0B
:1005300061E00E941006888190E0FC01EE0FFF1F31
:10054000E80FF91FEF5FFE4F1F738081807C812BC6
:10055000808380E292E08E199F0964E070E00E943F
:100560002107698380E699E08C199D0964E070E0B9
:100570000E9421076A83A8818A2F6CE00E941507D8
:10058000682F70E0AB01440F551F460F571F440FF3
:10059000551F440F551F20E030E0C901840F951FFF
:1005A000FC01EE0FFF1FE80FF91FEF5FFE4F808188
:1005B00086FD15C02F5F3F4F2C30310571F724C0E9
:1005C0001092800082E0809381001092850010924A
:1005D0008400B19A80916F00826080936F008A2FAF
:1005E00090E0FC01EE0FFF1FE80FF91FEF5FFE4FD9
:1005F0008081806480838881DF91CF911F91FF90FB
:10060000EF90DF90CF900895672BD1F2E8CF40E2D2
:1006100052E020E639E00E94880208951F920F926E
:100620000FB60F9211242F933F934F935F936F93C5
:100630007F938F939F93AF93BF93EF93FF9380919B
:10064000250187FF05C010928500109284002BC001
:1006500020912501332727FD30958091000190E0FE
:100660002817390704F580912501992787FD909572
:10067000FC01EE0FFF1FE80FF91FEF5FFE4F8081B7
:1006800086FF11C080912501992787FD9095FC0177
:10069000EE0FFF1FE80FF91FEF5FFE4F80818F7392
:1006A00060E00E944F06809125018F5F80932501B5
:1006B00020912501332727FD30958091000190E09E
:1006C000281739070CF04EC0809125018C300CF0B2
:1006D00049C020918400309185008091250199279F
:1006E00087FD9095FC01EE0FFF1FE80FF91FEF5FEC
:1006F000FE4F81819281280F391F3093890020930A
:10070000880080912501992787FD9095FC01EE0FC7
:10071000FF1FE80FF91FEF5FFE4F808186FF2BC0A0
:1007200080912501992787FD9095FC01EE0FFF1F11
:10073000E80FF91FEF5FFE4F80818F7361E00E9429
:100740004F0619C080E49CE905C080918400909117
:100750008500049690938900809388008FEF8093A2
:10076000250109C0809184009091850004968054F1
:100770009C4940F3EACFFF91EF91BF91AF919F91D8
:100780008F917F916F915F914F913F912F910F903A
:100790000FBE0F901F90189581309105D1F46F5FB7
:1007A0007F4F41F588E291E062E070E00E94D40062
:1007B0008EE291E060E070E049E050E00E94580174
:1007C0008CE391E06AE070E04BE050E00E94580159
:1007D0000895892B79F46F5F7F4F61F48CE391E08A
:1007E0000E9442018EE291E00E94420188E291E083
:1007F0000E948D00089580E090E06FEF7FEF0E94EF
:10080000CC03089581E090E06FEF7FEF0E94CC036E
:10081000089588E291E00E94BB00019769F48091FD
:10082000260190912701019665E070E00E94210762
:1008300090932701809326018091260190912701B2
:100840008230910509F449C08330910534F4009752
:1008500061F0019709F090C023C08330910509F43D
:1008600055C0049709F088C06CC083E061E00E9425
:100870004F0684E060E00E944F0685E060E00E9441
:100880004F068EE291E060E070E040E050E00E94B0
:10089000E6008CE391E060E070E040E050E01AC0D8
:1008A00083E061E00E944F0684E061E00E944F0611
:1008B00085E060E00E944F068EE291E06DE270E01C
:1008C0004DE250E00E94E6008CE391E06DE270E0C2
:1008D0004DE250E00E94E6005BC083E060E00E94D1
:1008E0004F0684E061E00E944F0685E060E00E94D0
:1008F0004F068EE291E06AE570E04AE550E00E9422
:10090000E6008CE391E00E94020142C083E060E0D7
:100910000E944F0684E061E00E944F0685E061E09E
:100920000E944F068EE291E06AE570E04AE550E0F1
:100930000E94E6008CE391E06AE570E04AE550E051
:10094000C9CF83E060E00E944F0684E060E00E942F
:100950004F0685E061E00E944F068EE291E064EB75
:1009600070E044EB50E00E94E6008CE391E064EB21
:1009700070E044EB50E0AECF83E061E00E944F06B0
:1009800084E061E00E944F0685E061E00E944F062E
:100990006AE070E080E090E00E947C05089583E0CA
:1009A00061E00E94100684E061E00E94100685E08C
:1009B00061E00E9410060895CF93DF930E94D50551
:1009C0000E94CF04C0E0D0E00E9409042097E1F328
:1009D0000E940000F9CF2F923F924F925F926F9248
:1009E0007F928F929F92AF92BF92CF92DF92EF92BF
:1009F000FF920F931F93DF93CF93CDB7DEB73B01E9
:100A00004C0119012A016D897E898F89988D6A1997
:100A10007B098C099D09621A730A840A950AA4014C
:100A200093010E94F606E218F30804091509A801CB
:100A300097010E9434072A0D3B1D4C1D5D1DB90115
:100A4000CA01CF91DF911F910F91FF90EF90DF903E
:100A5000CF90BF90AF909F908F907F906F905F905E
:100A60004F903F902F9008951F920F920FB60F92C4
:100A700011242F933F938F939F93AF93BF938091B4
:100A80004E0190914F01A0915001B09151013091D0
:100A900052010196A11DB11D232F2D5F2D3720F08E
:100AA0002D570196A11DB11D2093520180934E0137
:100AB00090934F01A0935001B093510180914A014E
:100AC00090914B01A0914C01B0914D010196A11D57
:100AD000B11D80934A0190934B01A0934C01B093B8
:100AE0004D01BF91AF919F918F913F912F910F90A9
:100AF0000FBE0F901F9018959B01AC017FB7F89423
:100B000080914A0190914B01A0914C01B0914D010F
:100B100066B5A89B05C06F3F19F00196A11DB11DD8
:100B20007FBFBA2FA92F982F8827860F911DA11D4F
:100B3000B11D62E0880F991FAA1FBB1F6A95D1F7EC
:100B4000BC012DC0FFB7F89480914A0190914B01F0
:100B5000A0914C01B0914D01E6B5A89B05C0EF3FB7
:100B600019F00196A11DB11DFFBFBA2FA92F982F13
:100B700088278E0F911DA11DB11DE2E0880F991FDE
:100B8000AA1FBB1FEA95D1F7861B970B885E93407F
:100B9000C8F2215030404040504068517C4F2115F0
:100BA00031054105510571F60895789484B5826048
:100BB00084BD84B5816084BD85B5826085BD85B501
:100BC000816085BDEEE6F0E0808181608083E1E8B0
:100BD000F0E01082808182608083808181608083E8
:100BE000E0E8F0E0808181608083E1EBF0E08081EB
:100BF00084608083E0EBF0E0808181608083EAE7BD
:100C0000F0E0808184608083808182608083808145
:100C1000816080838081806880831092C100089504
:100C2000CF93DF93482F50E0CA0186569F4FFC01B7
:100C300034914A575F4FFA018491882369F190E01B
:100C4000880F991FFC01E859FF4FA591B491FC0151
:100C5000EE58FF4FC591D491662351F42FB7F89405
:100C60008C91932F909589238C93888189230BC035
:100C7000623061F42FB7F8948C91932F909589236B
:100C80008C938881832B88832FBF06C09FB7F894ED
:100C90008C91832B8C939FBFDF91CF910895482F28
:100CA00050E0CA0182559F4FFC012491CA0186562B
:100CB0009F4FFC0194914A575F4FFA0134913323BF
:100CC00009F440C0222351F1233071F0243028F47C
:100CD0002130A1F0223011F514C02630B1F02730B8
:100CE000C1F02430D9F404C0809180008F7703C014
:100CF000809180008F7D8093800010C084B58F77B5
:100D000002C084B58F7D84BD09C08091B0008F770B
:100D100003C08091B0008F7D8093B000E32FF0E09E
:100D2000EE0FFF1FEE58FF4FA591B4912FB7F89427
:100D3000662321F48C919095892302C08C91892B94
:100D40008C932FBF0895682F70E0CB0182559F4F81
:100D5000FC012491CB0186569F4FFC0144916A57B8
:100D60007F4FFB019491992319F420E030E03CC0BF
:100D7000222351F1233071F0243028F42130A1F0E6
:100D8000223011F514C02630B1F02730C1F02430E4
:100D9000D9F404C0809180008F7703C080918000D7
:100DA0008F7D8093800010C084B58F7702C084B59A
:100DB0008F7D84BD09C08091B0008F7703C0809182
:100DC000B0008F7D8093B000892F90E0880F991F2D
:100DD00084589F4FFC01A591B4918C9120E030E0A4
:100DE000842311F021E030E0C9010895629FD00111
:100DF000739FF001829FE00DF11D649FE00DF11DD6
:100E0000929FF00D839FF00D749FF00D659FF00D84
:100E10009927729FB00DE11DF91F639FB00DE11D71
:100E2000F91FBD01CF0111240895991B79E004C079
:100E3000991F961708F0961B881F7A95C9F7809519
:100E4000089597FB092E07260AD077FD04D027D0F6
:100E500006D000201AF4709561957F4F0895F6F73B
:100E6000909581959F4F089597FB092E05260ED0EA
:100E700057FD04D028D00AD0001C38F45095409576
:100E8000309521953F4F4F4F5F4F0895F6F790955E
:100E90008095709561957F4F8F4F9F4F0895AA1B46
:100EA000BB1B51E107C0AA1FBB1FA617B70710F055
:100EB000A61BB70B881F991F5A95A9F78095909587
:100EC000BC01CD010895A1E21A2EAA1BBB1BFD0196
:100ED0000DC0AA1FBB1FEE1FFF1FA217B307E40719
:100EE000F50720F0A21BB30BE40BF50B661F771F71
:100EF000881F991F1A9469F7609570958095909551
:100F00009B01AC01BD01CF010895EE0FFF1F0590BD
:100F1000F491E02D099410E0C4ECD0E004C0FE018F
:100F20000E9487072296C63CD107C9F7F894FFCFE5
:00000001FF
